:100000000C9446000C9465000C9465000C946500FB
:100010000C9465000C9465000C9465000C946500CC
:100020000C9465000C9465000C9465000C946500BC
:100030000C9465000C9465000C9465000C946500AC
:100040000C9465000C9465000C9465000C9465009C
:100050000C9465000C9465000C9465000C9465008C
:100060000C9465000C9465000C9465000C9465007C
:100070000C9465000C9465000C9465000C9465006C
:100080000C9465000C9465000C94650011241FBE4F
:10009000CFEFD0E4DEBFCDBF11E0A0E0B1E0EEECE9
:1000A000F6E000E00BBF02C007900D92AE30B10742
:1000B000D9F721E0AEE0B1E001C01D92A531B20751
:1000C000E1F70E94C3010C9465030C940000CF93E8
:1000D000C82F8A3019F48DE00E9467008091C0001B
:1000E00085FFFCCFC093C60080E090E0CF910895DB
:1000F000CF92DF92EF92FF926B017C0160910F0132
:10010000709110018091110190911201A701960147
:100110000E94D101882309F458C020E030E0A901F1
:10012000C701B6010E94D101811106C0E1E9F0E0EA
:1001300080818870808305C0E1E9F0E08081836080
:10014000808328E539E344E75FE3C701B6010E94F5
:10015000D10188233CF48FEF9FEF90939900809317
:10016000980027C020E034E244EF56E4C701B6010E
:100170000E94F30218162CF4109299001092980025
:1001800018C020E030E040E053E4C701B6010E940F
:10019000F8029B01AC0160E074E284EF9AE40E94F3
:1001A000D6010E94480261507109709399006093D2
:1001B00098001092950010929400C0920F01D09276
:1001C0001001E0921101F0921201FF90EF90DF9088
:1001D000CF90089580E4809390008BE0809391000D
:1001E00060E070E0CB010E947800089510929000CA
:1001F0001092910008958091130190911401823022
:10020000910509F455C028F4009759F0019781F041
:1002100088C08330910509F45EC0049709F46EC06C
:1002200080C081E090E090931401809313017FC01F
:1002300080910E018770813039F482E090E09093D4
:1002400014018093130173C0823039F483E090E08D
:1002500090931401809313016AC0843039F484E0D0
:1002600090E0909314018093130161C0833039F4BE
:1002700085E090E0909314018093130158C085307D
:1002800039F485E090E090931401809313014FC0FE
:10029000863039F485E090E0909314018093130147
:1002A00046C081E090E090931401809313013FC019
:1002B00080910E018770813039F482E090E0909354
:1002C00014018093130133C081E090E090931401F6
:1002D000809313012CC080910E018770823039F415
:1002E00083E090E0909314018093130120C081E09B
:1002F00090E0909314018093130119C080910E0136
:100300008770843039F484E090E0909314018093F6
:1003100013010DC081E090E09093140180931301CC
:1003200006C081E090E090931401809313018091C6
:100330001301909114018330910589F018F402970C
:1003400039F008958430910589F00597B1F008954A
:1003500064EA70ED82E893E40E94780008956BE708
:1003600074ED82E993E40E947800089564EA70EDE8
:1003700084EA93E40E947800089560E070E0CB0185
:100380000E947800089511B88FEF82B984B915B82A
:1003900010921401109213010E94EA000E94FB00C7
:1003A000FDCF0E947E0208F481E008950E94EA01D8
:1003B0000C94B9020E94B20258F00E94AB0240F0C5
:1003C00029F45F3F29F00C94A20251110C94ED0224
:1003D0000C94A8020E94CA0268F39923B1F3552332
:1003E00091F3951B550BBB27AA2762177307840748
:1003F00038F09F5F5F4F220F331F441FAA1FA9F3DE
:1004000035D00E2E3AF0E0E832D091505040E695CB
:10041000001CCAF72BD0FE2F29D0660F771F881F2C
:10042000BB1F261737074807AB07B0E809F0BB0B1F
:10043000802DBF01FF2793585F4F3AF09E3F510533
:1004400078F00C94A2020C94ED025F3FE4F3983E26
:10045000D4F3869577956795B795F7959F5FC9F71C
:10046000880F911D9695879597F90895E1E0660F9D
:10047000771F881FBB1F621773078407BA0720F016
:10048000621B730B840BBA0BEE1F88F7E09508957F
:100490000E944F026894B1110C94ED0208950E94DD
:1004A000D20288F09F5798F0B92F9927B751B0F032
:1004B000E1F0660F771F881F991F1AF0BA95C9F7E8
:1004C00014C0B13091F00E94EC02B1E008950C9498
:1004D000EC02672F782F8827B85F39F0B93FCCF34B
:1004E000869577956795B395D9F73EF49095809565
:1004F000709561957F4F8F4F9F4F0895990F00081A
:10050000550FAA0BE0E8FEEF16161706E807F907E5
:10051000C0F012161306E407F50798F0621B730B80
:10052000840B950B39F40A2661F0232B242B252B01
:1005300021F408950A2609F4A140A6958FEF811DA4
:10054000811D089597F99F6780E870E060E0089545
:100550009FEF80EC089500240A94161617061806DB
:100560000906089500240A941216130614060506B7
:100570000895092E0394000C11F4882352F0BB0F48
:1005800040F4BF2B11F460FF04C06F5F7F4F8F4FAB
:100590009F4F089557FD9058440F551F59F05F3FE6
:1005A00071F04795880F97FB991F61F09F3F79F095
:1005B00087950895121613061406551FF2CF469517
:1005C000F1DF08C0161617061806991FF1CF869599
:1005D0007105610508940895E894BB27662777277D
:1005E000CB0197F908950E947E0208F48FEF0895D9
:1005F0000E940B030C94B9020E94AB0238F00E94D7
:10060000B20220F0952311F00C94A2020C94A802DF
:1006100011240C94ED020E94CA0270F3959FC1F35D
:10062000950F50E0551F629FF001729FBB27F00DA0
:10063000B11D639FAA27F00DB11DAA1F649F6627F5
:10064000B00DA11D661F829F2227B00DA11D621F44
:10065000739FB00DA11D621F839FA00D611D221FFE
:10066000749F3327A00D611D231F849F600D211DE2
:10067000822F762F6A2F11249F5750409AF0F1F065
:1006800088234AF0EE0FFF1FBB1F661F771F881FCE
:1006900091505040A9F79E3F510580F00C94A20262
:1006A0000C94ED025F3FE4F3983ED4F38695779582
:1006B0006795B795F795E7959F5FC1F7FE2B880F74
:0E06C000911D9695879597F90895F894FFCFB0
:0E06CE000000000200000000670000000000B5
:00000001FF
