:100000000C9446000C9465000C9465000C946500FB
:100010000C9465000C9465000C9465000C946500CC
:100020000C9465000C9465000C9465000C946500BC
:100030000C9465000C94B4000C9465000C9465005D
:100040000C9465000C9465000C9465000C9465009C
:100050000C9465000C9465000C9465000C9465008C
:100060000C9465000C9465000C9465000C9465007C
:100070000C9465000C9465000C9465000C9465006C
:100080000C9465000C9465000C94650011241FBE4F
:10009000CFEFD0E4DEBFCDBF11E0A0E0B1E0EAE6F3
:1000A000F4E000E00BBF02C007900D92A231B1074F
:1000B000D9F721E0A2E1B1E001C01D92A932B20757
:1000C000E1F70E9401020C9433020C940000CF93DC
:1000D000C82F8A3019F48DE00E9467008091C0001B
:1000E00085FFFCCFC093C60080E090E0CF910895DB
:1000F00060930001709301018093020190930301CA
:10010000609313017093140180931501909316016D
:1001100008958BE0809381008DE790E090938900B3
:100120008093880082E080936F0010928500109287
:1001300084008091000190910101A0910201B09191
:1001400003018093130190931401A0931501B093C0
:1001500016018FB780688FBF0895109281000895AF
:1001600081E08093170108951F920F920FB60F92AE
:1001700011240BB60F922F933F934F935F936F937E
:100180007F938F939F93AF93BF93EF93FF93809150
:10019000130190911401A0911501B09116010197DE
:1001A000A109B1098093130190931401A093150143
:1001B000B0931601892B8A2B8B2B91F40E94B000EF
:1001C0008091000190910101A0910201B091030181
:1001D0008093130190931401A0931501B09316011D
:1001E000FF91EF91BF91AF919F918F917F916F910F
:1001F0005F914F913F912F910F900BBE0F900FBECB
:100200000F901F9018958091210190912201892BC8
:1002100029F4109222011092210104C010922201AF
:10022000109221018091210190912201892BB1F43A
:1002300080911D0190911E018930910534F4019641
:1002400090931E0180931D01089580911201816099
:100250008093120110921E0110921D010895809149
:10026000250190912601892B29F4109226011092E4
:10027000250104C0109226011092250180912501CC
:1002800090912601892B41F520911B0130911C0191
:100290002F5F3F4F30931C0120931B0180B190E0F2
:1002A00080959095887F9927892B41F42A303105D4
:1002B0002CF010921C0110921B01089580B190E067
:1002C00080959095887F9927181619062CF48091AF
:1002D000120182608093120108958091270190910C
:1002E0002801892B29F4109228011092270104C0BB
:1002F00010922801109227018091270190912801E6
:10030000892B71F420911A0130E080B190E0809542
:1003100090952817390724F080B1809580931A01B1
:1003200008958091230190912401892B21F010924E
:100330002401109223018091230190912401892BA3
:1003400009F045C080911D0190911E0118161906F3
:1003500054F0019690931E0180931D0180B1809509
:1003600080931901089502974CF480B18095809391
:10037000180110921E0110921D010895209119017B
:100380008091180190E0820F911D049749F48091AB
:1003900012018460809312011092190110921801C9
:1003A0008091180190E020911901821B9109049716
:1003B00051F480911201846080931201109219010E
:1003C00010921801089510921901109218010895C1
:1003D00080911F0190912001892B29F41092200116
:1003E00010921F0104C01092200110921F018091F1
:1003F0001F0190912001892B19F48091120185B978
:10040000089511B88FEF82B984B915B864E670E029
:1004100080E090E00E9478000E9489001092220102
:1004200010922101109226011092250110922801AC
:1004300010922701109224011092230110922001A2
:1004400010921F010E9403010E942F010E946D0162
:100450000E9491010E94E801809117018823E1F335
:0A04600010921701EFCFF894FFCFC0
:10046A000100000000000002000000006700000018
:02047A00000080
:00000001FF
